{"abi":[{"type":"constructor","inputs":[],"stateMutability":"nonpayable"},{"type":"function","name":"claimReward","inputs":[{"name":"quizId","type":"bytes32","internalType":"bytes32"}],"outputs":[],"stateMutability":"nonpayable"},{"type":"function","name":"closeQuiz","inputs":[{"name":"quizId","type":"bytes32","internalType":"bytes32"}],"outputs":[],"stateMutability":"nonpayable"},{"type":"function","name":"createQuiz","inputs":[{"name":"quizId","type":"bytes32","internalType":"bytes32"},{"name":"rewardToken","type":"address","internalType":"address"},{"name":"rewardAmount","type":"uint256","internalType":"uint256"},{"name":"entryFeeToken","type":"address","internalType":"address"},{"name":"entryFeeAmount","type":"uint256","internalType":"uint256"},{"name":"stakeToken","type":"address","internalType":"address"},{"name":"stakeAmount","type":"uint256","internalType":"uint256"}],"outputs":[],"stateMutability":"nonpayable"},{"type":"function","name":"getClaimableReward","inputs":[{"name":"quizId","type":"bytes32","internalType":"bytes32"},{"name":"participant","type":"address","internalType":"address"}],"outputs":[{"name":"","type":"uint256","internalType":"uint256"}],"stateMutability":"view"},{"type":"function","name":"getParticipant","inputs":[{"name":"quizId","type":"bytes32","internalType":"bytes32"},{"name":"participant","type":"address","internalType":"address"}],"outputs":[{"name":"","type":"tuple","internalType":"struct QuizRewardPool.Participant","components":[{"name":"joined","type":"bool","internalType":"bool"},{"name":"staked","type":"bool","internalType":"bool"},{"name":"stakedAmount","type":"uint256","internalType":"uint256"},{"name":"entryFeePaid","type":"uint256","internalType":"uint256"},{"name":"rewardClaimed","type":"bool","internalType":"bool"},{"name":"rewardAmount","type":"uint256","internalType":"uint256"}]}],"stateMutability":"view"},{"type":"function","name":"getQuiz","inputs":[{"name":"quizId","type":"bytes32","internalType":"bytes32"}],"outputs":[{"name":"","type":"tuple","internalType":"struct QuizRewardPool.Quiz","components":[{"name":"creator","type":"address","internalType":"address"},{"name":"rewardToken","type":"address","internalType":"address"},{"name":"totalRewardPool","type":"uint256","internalType":"uint256"},{"name":"remainingReward","type":"uint256","internalType":"uint256"},{"name":"entryFeeToken","type":"address","internalType":"address"},{"name":"entryFeeAmount","type":"uint256","internalType":"uint256"},{"name":"stakeToken","type":"address","internalType":"address"},{"name":"stakeAmount","type":"uint256","internalType":"uint256"},{"name":"totalEntryFees","type":"uint256","internalType":"uint256"},{"name":"totalStaked","type":"uint256","internalType":"uint256"},{"name":"active","type":"bool","internalType":"bool"}]}],"stateMutability":"view"},{"type":"function","name":"hasJoined","inputs":[{"name":"quizId","type":"bytes32","internalType":"bytes32"},{"name":"participant","type":"address","internalType":"address"}],"outputs":[{"name":"","type":"bool","internalType":"bool"}],"stateMutability":"view"},{"type":"function","name":"joinQuiz","inputs":[{"name":"quizId","type":"bytes32","internalType":"bytes32"}],"outputs":[],"stateMutability":"nonpayable"},{"type":"function","name":"owner","inputs":[],"outputs":[{"name":"","type":"address","internalType":"address"}],"stateMutability":"view"},{"type":"function","name":"participants","inputs":[{"name":"","type":"bytes32","internalType":"bytes32"},{"name":"","type":"address","internalType":"address"}],"outputs":[{"name":"joined","type":"bool","internalType":"bool"},{"name":"staked","type":"bool","internalType":"bool"},{"name":"stakedAmount","type":"uint256","internalType":"uint256"},{"name":"entryFeePaid","type":"uint256","internalType":"uint256"},{"name":"rewardClaimed","type":"bool","internalType":"bool"},{"name":"rewardAmount","type":"uint256","internalType":"uint256"}],"stateMutability":"view"},{"type":"function","name":"quizzes","inputs":[{"name":"","type":"bytes32","internalType":"bytes32"}],"outputs":[{"name":"creator","type":"address","internalType":"address"},{"name":"rewardToken","type":"address","internalType":"address"},{"name":"totalRewardPool","type":"uint256","internalType":"uint256"},{"name":"remainingReward","type":"uint256","internalType":"uint256"},{"name":"entryFeeToken","type":"address","internalType":"address"},{"name":"entryFeeAmount","type":"uint256","internalType":"uint256"},{"name":"stakeToken","type":"address","internalType":"address"},{"name":"stakeAmount","type":"uint256","internalType":"uint256"},{"name":"totalEntryFees","type":"uint256","internalType":"uint256"},{"name":"totalStaked","type":"uint256","internalType":"uint256"},{"name":"active","type":"bool","internalType":"bool"}],"stateMutability":"view"},{"type":"function","name":"renounceOwnership","inputs":[],"outputs":[],"stateMutability":"nonpayable"},{"type":"function","name":"returnStake","inputs":[{"name":"quizId","type":"bytes32","internalType":"bytes32"}],"outputs":[],"stateMutability":"nonpayable"},{"type":"function","name":"setWinner","inputs":[{"name":"quizId","type":"bytes32","internalType":"bytes32"},{"name":"winner","type":"address","internalType":"address"},{"name":"rewardAmount","type":"uint256","internalType":"uint256"}],"outputs":[],"stateMutability":"nonpayable"},{"type":"function","name":"setWinnersBatch","inputs":[{"name":"quizId","type":"bytes32","internalType":"bytes32"},{"name":"winners","type":"address[]","internalType":"address[]"},{"name":"amounts","type":"uint256[]","internalType":"uint256[]"}],"outputs":[],"stateMutability":"nonpayable"},{"type":"function","name":"transferOwnership","inputs":[{"name":"newOwner","type":"address","internalType":"address"}],"outputs":[],"stateMutability":"nonpayable"},{"type":"function","name":"withdrawEntryFees","inputs":[{"name":"quizId","type":"bytes32","internalType":"bytes32"}],"outputs":[],"stateMutability":"nonpayable"},{"type":"function","name":"withdrawRemainingRewards","inputs":[{"name":"quizId","type":"bytes32","internalType":"bytes32"}],"outputs":[],"stateMutability":"nonpayable"},{"type":"event","name":"OwnershipTransferred","inputs":[{"name":"previousOwner","type":"address","indexed":true,"internalType":"address"},{"name":"newOwner","type":"address","indexed":true,"internalType":"address"}],"anonymous":false},{"type":"event","name":"ParticipantJoined","inputs":[{"name":"quizId","type":"bytes32","indexed":true,"internalType":"bytes32"},{"name":"participant","type":"address","indexed":true,"internalType":"address"},{"name":"entryFee","type":"uint256","indexed":false,"internalType":"uint256"},{"name":"stake","type":"uint256","indexed":false,"internalType":"uint256"}],"anonymous":false},{"type":"event","name":"QuizClosed","inputs":[{"name":"quizId","type":"bytes32","indexed":true,"internalType":"bytes32"}],"anonymous":false},{"type":"event","name":"QuizCreated","inputs":[{"name":"quizId","type":"bytes32","indexed":true,"internalType":"bytes32"},{"name":"creator","type":"address","indexed":true,"internalType":"address"},{"name":"rewardToken","type":"address","indexed":false,"internalType":"address"},{"name":"rewardAmount","type":"uint256","indexed":false,"internalType":"uint256"}],"anonymous":false},{"type":"event","name":"RewardClaimed","inputs":[{"name":"quizId","type":"bytes32","indexed":true,"internalType":"bytes32"},{"name":"winner","type":"address","indexed":true,"internalType":"address"},{"name":"amount","type":"uint256","indexed":false,"internalType":"uint256"}],"anonymous":false},{"type":"event","name":"RewardDeposited","inputs":[{"name":"quizId","type":"bytes32","indexed":true,"internalType":"bytes32"},{"name":"depositor","type":"address","indexed":true,"internalType":"address"},{"name":"amount","type":"uint256","indexed":false,"internalType":"uint256"}],"anonymous":false},{"type":"event","name":"StakeReturned","inputs":[{"name":"quizId","type":"bytes32","indexed":true,"internalType":"bytes32"},{"name":"participant","type":"address","indexed":true,"internalType":"address"},{"name":"amount","type":"uint256","indexed":false,"internalType":"uint256"}],"anonymous":false},{"type":"event","name":"WinnerSet","inputs":[{"name":"quizId","type":"bytes32","indexed":true,"internalType":"bytes32"},{"name":"winner","type":"address","indexed":true,"internalType":"address"},{"name":"rewardAmount","type":"uint256","indexed":false,"internalType":"uint256"}],"anonymous":false},{"type":"error","name":"OwnableInvalidOwner","inputs":[{"name":"owner","type":"address","internalType":"address"}]},{"type":"error","name":"OwnableUnauthorizedAccount","inputs":[{"name":"account","type":"address","internalType":"address"}]},{"type":"error","name":"ReentrancyGuardReentrantCall","inputs":[]},{"type":"error","name":"SafeERC20FailedOperation","inputs":[{"name":"token","type":"address","internalType":"address"}]}],"bytecode":{"object":"0x608060405234801562000010575f80fd5b50335f73ffffffffffffffffffffffffffffffffffffffff168173ffffffffffffffffffffffffffffffffffffffff160362000085575f6040517f1e4fbdf70000000000000000000000000000000000000000000000000000000081526004016200007c9190620001fb565b60405180910390fd5b6200009681620000c560201b60201c565b506001620000b9620000ad6200018660201b60201c565b620001af60201b60201c565b5f018190555062000216565b5f805f9054906101000a900473ffffffffffffffffffffffffffffffffffffffff169050815f806101000a81548173ffffffffffffffffffffffffffffffffffffffff021916908373ffffffffffffffffffffffffffffffffffffffff1602179055508173ffffffffffffffffffffffffffffffffffffffff168173ffffffffffffffffffffffffffffffffffffffff167f8be0079c531659141344cd1fd0a4f28419497f9722a3daafe3b4186f6b6457e060405160405180910390a35050565b5f7f9b779b17422d0df92223018b32b4d1fa46e071723d6817e2486d003becc55f005f1b905090565b5f819050919050565b5f73ffffffffffffffffffffffffffffffffffffffff82169050919050565b5f620001e382620001b8565b9050919050565b620001f581620001d7565b82525050565b5f602082019050620002105f830184620001ea565b92915050565b61348a80620002245f395ff3fe608060405234801561000f575f80fd5b5060043610610114575f3560e01c8063a3d4db7d116100a0578063bd99e5bd1161006f578063bd99e5bd146102e7578063d16a7c5414610303578063d616b21214610333578063f2fde38b1461034f578063f54140231461036b57610114565b8063a3d4db7d1461025e578063a510acb11461027a578063a79a2c7814610296578063b69059da146102cb57610114565b80635f49bde3116100e75780635f49bde3146101ce5780636785ce09146101ea578063694d3d381461021a578063715018a6146102365780638da5cb5b1461024057610114565b806302cc90c7146101185780633ba170c0146101485780634a91466e1461016457806354362b9e1461019e575b5f80fd5b610132600480360381019061012d9190612561565b610387565b60405161013f91906125b9565b60405180910390f35b610162600480360381019061015d91906125d2565b6103eb565b005b61017e600480360381019061017991906125d2565b610613565b6040516101959b9a99989796959493929190612624565b60405180910390f35b6101b860048036038101906101b391906125d2565b6106f1565b6040516101c591906127d9565b60405180910390f35b6101e860048036038101906101e391906125d2565b6108c6565b005b61020460048036038101906101ff9190612561565b610a43565b604051610211919061286c565b60405180910390f35b610234600480360381019061022f91906125d2565b610b15565b005b61023e610f3d565b005b610248610f50565b6040516102559190612885565b60405180910390f35b61027860048036038101906102739190612954565b610f77565b005b610294600480360381019061028f91906125d2565b6112e3565b005b6102b060048036038101906102ab9190612561565b611441565b6040516102c2969594939291906129e5565b60405180910390f35b6102e560048036038101906102e09190612a6e565b6114a8565b005b61030160048036038101906102fc9190612b0b565b61190d565b005b61031d60048036038101906103189190612561565b611b1d565b60405161032a9190612b5b565b60405180910390f35b61034d600480360381019061034891906125d2565b611c05565b005b61036960048036038101906103649190612b74565b611db4565b005b610385600480360381019061038091906125d2565b611e38565b005b5f60025f8481526020019081526020015f205f8373ffffffffffffffffffffffffffffffffffffffff1673ffffffffffffffffffffffffffffffffffffffff1681526020019081526020015f205f015f9054906101000a900460ff16905092915050565b6103f3612058565b5f60015f8381526020019081526020015f2090505f60025f8481526020019081526020015f205f3373ffffffffffffffffffffffffffffffffffffffff1673ffffffffffffffffffffffffffffffffffffffff1681526020019081526020015f20905081600a015f9054906101000a900460ff16156104a7576040517f08c379a000000000000000000000000000000000000000000000000000000000815260040161049e90612bf9565b60405180910390fd5b805f0160019054906101000a900460ff166104f7576040517f08c379a00000000000000000000000000000000000000000000000000000000081526004016104ee90612c61565b60405180910390fd5b5f81600101541161053d576040517f08c379a000000000000000000000000000000000000000000000000000000000815260040161053490612cc9565b60405180910390fd5b5f816001015490505f826001018190555080836009015f8282546105619190612d14565b925050819055506105b63382856006015f9054906101000a900473ffffffffffffffffffffffffffffffffffffffff1673ffffffffffffffffffffffffffffffffffffffff1661207a9092919063ffffffff16565b3373ffffffffffffffffffffffffffffffffffffffff16847ffbf073a7709bd64bf3406dfd536abdbc9a3750eb99c8f26f543768c24a237b07836040516105fd9190612b5b565b60405180910390a35050506106106120cd565b50565b6001602052805f5260405f205f91509050805f015f9054906101000a900473ffffffffffffffffffffffffffffffffffffffff1690806001015f9054906101000a900473ffffffffffffffffffffffffffffffffffffffff1690806002015490806003015490806004015f9054906101000a900473ffffffffffffffffffffffffffffffffffffffff1690806005015490806006015f9054906101000a900473ffffffffffffffffffffffffffffffffffffffff169080600701549080600801549080600901549080600a015f9054906101000a900460ff1690508b565b6106f96123ed565b60015f8381526020019081526020015f20604051806101600160405290815f82015f9054906101000a900473ffffffffffffffffffffffffffffffffffffffff1673ffffffffffffffffffffffffffffffffffffffff1673ffffffffffffffffffffffffffffffffffffffff168152602001600182015f9054906101000a900473ffffffffffffffffffffffffffffffffffffffff1673ffffffffffffffffffffffffffffffffffffffff1673ffffffffffffffffffffffffffffffffffffffff1681526020016002820154815260200160038201548152602001600482015f9054906101000a900473ffffffffffffffffffffffffffffffffffffffff1673ffffffffffffffffffffffffffffffffffffffff1673ffffffffffffffffffffffffffffffffffffffff16815260200160058201548152602001600682015f9054906101000a900473ffffffffffffffffffffffffffffffffffffffff1673ffffffffffffffffffffffffffffffffffffffff1673ffffffffffffffffffffffffffffffffffffffff168152602001600782015481526020016008820154815260200160098201548152602001600a82015f9054906101000a900460ff1615151515815250509050919050565b5f60015f8381526020019081526020015f209050805f015f9054906101000a900473ffffffffffffffffffffffffffffffffffffffff1673ffffffffffffffffffffffffffffffffffffffff163373ffffffffffffffffffffffffffffffffffffffff1614806109685750610939610f50565b73ffffffffffffffffffffffffffffffffffffffff163373ffffffffffffffffffffffffffffffffffffffff16145b6109a7576040517f08c379a000000000000000000000000000000000000000000000000000000000815260040161099e90612d91565b60405180910390fd5b80600a015f9054906101000a900460ff166109f7576040517f08c379a00000000000000000000000000000000000000000000000000000000081526004016109ee90612df9565b60405180910390fd5b5f81600a015f6101000a81548160ff021916908315150217905550817fcac157eb63006f49f286f79d8fe408a8750975a96146a734f922dbbafd16ff2c60405160405180910390a25050565b610a4b612496565b60025f8481526020019081526020015f205f8373ffffffffffffffffffffffffffffffffffffffff1673ffffffffffffffffffffffffffffffffffffffff1681526020019081526020015f206040518060c00160405290815f82015f9054906101000a900460ff161515151581526020015f820160019054906101000a900460ff161515151581526020016001820154815260200160028201548152602001600382015f9054906101000a900460ff16151515158152602001600482015481525050905092915050565b610b1d612058565b5f60015f8381526020019081526020015f20905080600a015f9054906101000a900460ff16610b81576040517f08c379a0000000000000000000000000000000000000000000000000000000008152600401610b7890612e61565b60405180910390fd5b60025f8381526020019081526020015f205f3373ffffffffffffffffffffffffffffffffffffffff1673ffffffffffffffffffffffffffffffffffffffff1681526020019081526020015f205f015f9054906101000a900460ff1615610c1c576040517f08c379a0000000000000000000000000000000000000000000000000000000008152600401610c1390612ec9565b60405180910390fd5b5f805f73ffffffffffffffffffffffffffffffffffffffff16836004015f9054906101000a900473ffffffffffffffffffffffffffffffffffffffff1673ffffffffffffffffffffffffffffffffffffffff1614158015610c8057505f8360050154115b15610cff57610cd933308560050154866004015f9054906101000a900473ffffffffffffffffffffffffffffffffffffffff1673ffffffffffffffffffffffffffffffffffffffff166120e7909392919063ffffffff16565b826005015491508260050154836008015f828254610cf79190612ee7565b925050819055505b5f73ffffffffffffffffffffffffffffffffffffffff16836006015f9054906101000a900473ffffffffffffffffffffffffffffffffffffffff1673ffffffffffffffffffffffffffffffffffffffff1614158015610d6157505f8360070154115b15610de057610dba33308560070154866006015f9054906101000a900473ffffffffffffffffffffffffffffffffffffffff1673ffffffffffffffffffffffffffffffffffffffff166120e7909392919063ffffffff16565b826007015490508260070154836009015f828254610dd89190612ee7565b925050819055505b6040518060c001604052806001151581526020015f8311151581526020018281526020018381526020015f151581526020015f81525060025f8681526020019081526020015f205f3373ffffffffffffffffffffffffffffffffffffffff1673ffffffffffffffffffffffffffffffffffffffff1681526020019081526020015f205f820151815f015f6101000a81548160ff0219169083151502179055506020820151815f0160016101000a81548160ff02191690831515021790555060408201518160010155606082015181600201556080820151816003015f6101000a81548160ff02191690831515021790555060a082015181600401559050503373ffffffffffffffffffffffffffffffffffffffff16847f58bc0e8bfe1dfe68c14d6a4bbde7f1dd63c549383ddf2e4e013f6418a91f018c8484604051610f27929190612f1a565b60405180910390a3505050610f3a6120cd565b50565b610f4561213c565b610f4e5f6121c3565b565b5f805f9054906101000a900473ffffffffffffffffffffffffffffffffffffffff16905090565b610f7f61213c565b818190508484905014610fc7576040517f08c379a0000000000000000000000000000000000000000000000000000000008152600401610fbe90612f8b565b60405180910390fd5b5f60015f8781526020019081526020015f20905080600a015f9054906101000a900460ff1661102b576040517f08c379a000000000000000000000000000000000000000000000000000000000815260040161102290612e61565b60405180910390fd5b5f805b848490508110156110735784848281811061104c5761104b612fa9565b5b905060200201358261105e9190612ee7565b9150808061106b90612fd6565b91505061102e565b5081600301548111156110bb576040517f08c379a00000000000000000000000000000000000000000000000000000000081526004016110b290613067565b60405180910390fd5b5f5b868690508110156112bf5760025f8981526020019081526020015f205f8888848181106110ed576110ec612fa9565b5b90506020020160208101906111029190612b74565b73ffffffffffffffffffffffffffffffffffffffff1673ffffffffffffffffffffffffffffffffffffffff1681526020019081526020015f205f015f9054906101000a900460ff16611189576040517f08c379a0000000000000000000000000000000000000000000000000000000008152600401611180906130cf565b60405180910390fd5b84848281811061119c5761119b612fa9565b5b9050602002013560025f8a81526020019081526020015f205f8989858181106111c8576111c7612fa9565b5b90506020020160208101906111dd9190612b74565b73ffffffffffffffffffffffffffffffffffffffff1673ffffffffffffffffffffffffffffffffffffffff1681526020019081526020015f20600401819055508686828181106112305761122f612fa9565b5b90506020020160208101906112459190612b74565b73ffffffffffffffffffffffffffffffffffffffff16887fb7820ddfb49901973670df94ded8a154ceeb0ccccc0c158560382ac3672dea468787858181106112905761128f612fa9565b5b905060200201356040516112a49190612b5b565b60405180910390a380806112b790612fd6565b9150506110bd565b5080826003015f8282546112d39190612d14565b9250508190555050505050505050565b6112eb612058565b5f60015f8381526020019081526020015f209050805f015f9054906101000a900473ffffffffffffffffffffffffffffffffffffffff1673ffffffffffffffffffffffffffffffffffffffff163373ffffffffffffffffffffffffffffffffffffffff161461138f576040517f08c379a000000000000000000000000000000000000000000000000000000000815260040161138690613137565b60405180910390fd5b5f8160080154116113d5576040517f08c379a00000000000000000000000000000000000000000000000000000000081526004016113cc9061319f565b60405180910390fd5b5f816008015490505f82600801819055506114343382846004015f9054906101000a900473ffffffffffffffffffffffffffffffffffffffff1673ffffffffffffffffffffffffffffffffffffffff1661207a9092919063ffffffff16565b505061143e6120cd565b50565b6002602052815f5260405f20602052805f5260405f205f9150915050805f015f9054906101000a900460ff1690805f0160019054906101000a900460ff1690806001015490806002015490806003015f9054906101000a900460ff16908060040154905086565b6114b0612058565b5f73ffffffffffffffffffffffffffffffffffffffff1660015f8981526020019081526020015f205f015f9054906101000a900473ffffffffffffffffffffffffffffffffffffffff1673ffffffffffffffffffffffffffffffffffffffff1614611550576040517f08c379a000000000000000000000000000000000000000000000000000000000815260040161154790613207565b60405180910390fd5b5f73ffffffffffffffffffffffffffffffffffffffff168673ffffffffffffffffffffffffffffffffffffffff16036115be576040517f08c379a00000000000000000000000000000000000000000000000000000000081526004016115b59061326f565b60405180910390fd5b5f8511611600576040517f08c379a00000000000000000000000000000000000000000000000000000000081526004016115f7906132d7565b60405180910390fd5b61162d3330878973ffffffffffffffffffffffffffffffffffffffff166120e7909392919063ffffffff16565b6040518061016001604052803373ffffffffffffffffffffffffffffffffffffffff1681526020018773ffffffffffffffffffffffffffffffffffffffff1681526020018681526020018681526020018573ffffffffffffffffffffffffffffffffffffffff1681526020018481526020018373ffffffffffffffffffffffffffffffffffffffff1681526020018281526020015f81526020015f81526020016001151581525060015f8981526020019081526020015f205f820151815f015f6101000a81548173ffffffffffffffffffffffffffffffffffffffff021916908373ffffffffffffffffffffffffffffffffffffffff1602179055506020820151816001015f6101000a81548173ffffffffffffffffffffffffffffffffffffffff021916908373ffffffffffffffffffffffffffffffffffffffff16021790555060408201518160020155606082015181600301556080820151816004015f6101000a81548173ffffffffffffffffffffffffffffffffffffffff021916908373ffffffffffffffffffffffffffffffffffffffff16021790555060a0820151816005015560c0820151816006015f6101000a81548173ffffffffffffffffffffffffffffffffffffffff021916908373ffffffffffffffffffffffffffffffffffffffff16021790555060e082015181600701556101008201518160080155610120820151816009015561014082015181600a015f6101000a81548160ff0219169083151502179055509050503373ffffffffffffffffffffffffffffffffffffffff16877f788ee3041e6e1cfdce42edb3b04cc5e00c3273ab0ff4097f88cdcb3d693b4d1488886040516118a59291906132f5565b60405180910390a33373ffffffffffffffffffffffffffffffffffffffff16877f8085b250618a39ff334c7d3f98264278fa62e0c55665bff318912c0b0f69090e876040516118f49190612b5b565b60405180910390a36119046120cd565b50505050505050565b61191561213c565b5f60015f8581526020019081526020015f20905080600a015f9054906101000a900460ff16611979576040517f08c379a000000000000000000000000000000000000000000000000000000000815260040161197090612e61565b60405180910390fd5b60025f8581526020019081526020015f205f8473ffffffffffffffffffffffffffffffffffffffff1673ffffffffffffffffffffffffffffffffffffffff1681526020019081526020015f205f015f9054906101000a900460ff16611a13576040517f08c379a0000000000000000000000000000000000000000000000000000000008152600401611a0a906130cf565b60405180910390fd5b8060030154821115611a5a576040517f08c379a0000000000000000000000000000000000000000000000000000000008152600401611a5190613067565b60405180910390fd5b8160025f8681526020019081526020015f205f8573ffffffffffffffffffffffffffffffffffffffff1673ffffffffffffffffffffffffffffffffffffffff1681526020019081526020015f206004018190555081816003015f828254611ac19190612d14565b925050819055508273ffffffffffffffffffffffffffffffffffffffff16847fb7820ddfb49901973670df94ded8a154ceeb0ccccc0c158560382ac3672dea4684604051611b0f9190612b5b565b60405180910390a350505050565b5f8060025f8581526020019081526020015f205f8473ffffffffffffffffffffffffffffffffffffffff1673ffffffffffffffffffffffffffffffffffffffff1681526020019081526020015f206040518060c00160405290815f82015f9054906101000a900460ff161515151581526020015f820160019054906101000a900460ff161515151581526020016001820154815260200160028201548152602001600382015f9054906101000a900460ff161515151581526020016004820154815250509050806080015115611bf6575f915050611bff565b8060a001519150505b92915050565b611c0d612058565b5f60015f8381526020019081526020015f209050805f015f9054906101000a900473ffffffffffffffffffffffffffffffffffffffff1673ffffffffffffffffffffffffffffffffffffffff163373ffffffffffffffffffffffffffffffffffffffff1614611cb1576040517f08c379a0000000000000000000000000000000000000000000000000000000008152600401611ca890613137565b60405180910390fd5b80600a015f9054906101000a900460ff1615611d02576040517f08c379a0000000000000000000000000000000000000000000000000000000008152600401611cf990612bf9565b60405180910390fd5b5f816003015411611d48576040517f08c379a0000000000000000000000000000000000000000000000000000000008152600401611d3f90613366565b60405180910390fd5b5f816003015490505f8260030181905550611da73382846001015f9054906101000a900473ffffffffffffffffffffffffffffffffffffffff1673ffffffffffffffffffffffffffffffffffffffff1661207a9092919063ffffffff16565b5050611db16120cd565b50565b611dbc61213c565b5f73ffffffffffffffffffffffffffffffffffffffff168173ffffffffffffffffffffffffffffffffffffffff1603611e2c575f6040517f1e4fbdf7000000000000000000000000000000000000000000000000000000008152600401611e239190612885565b60405180910390fd5b611e35816121c3565b50565b611e40612058565b5f60015f8381526020019081526020015f2090505f60025f8481526020019081526020015f205f3373ffffffffffffffffffffffffffffffffffffffff1673ffffffffffffffffffffffffffffffffffffffff1681526020019081526020015f209050805f015f9054906101000a900460ff16611ef2576040517f08c379a0000000000000000000000000000000000000000000000000000000008152600401611ee9906130cf565b60405180910390fd5b5f816004015411611f38576040517f08c379a0000000000000000000000000000000000000000000000000000000008152600401611f2f906133ce565b60405180910390fd5b806003015f9054906101000a900460ff1615611f89576040517f08c379a0000000000000000000000000000000000000000000000000000000008152600401611f8090613436565b60405180910390fd5b5f816004015490506001826003015f6101000a81548160ff021916908315150217905550611ffb3382856001015f9054906101000a900473ffffffffffffffffffffffffffffffffffffffff1673ffffffffffffffffffffffffffffffffffffffff1661207a9092919063ffffffff16565b3373ffffffffffffffffffffffffffffffffffffffff16847ffe236dfc7ce073698734b89da1aee0e7551c9c6d264404c502e6e8fefc1132a8836040516120429190612b5b565b60405180910390a35050506120556120cd565b50565b612060612284565b600261207261206d6122c5565b6122ee565b5f0181905550565b61208783838360016122f7565b6120c857826040517f5274afe70000000000000000000000000000000000000000000000000000000081526004016120bf9190612885565b60405180910390fd5b505050565b60016120df6120da6122c5565b6122ee565b5f0181905550565b6120f5848484846001612359565b61213657836040517f5274afe700000000000000000000000000000000000000000000000000000000815260040161212d9190612885565b60405180910390fd5b50505050565b6121446123ca565b73ffffffffffffffffffffffffffffffffffffffff16612162610f50565b73ffffffffffffffffffffffffffffffffffffffff16146121c1576121856123ca565b6040517f118cdaa70000000000000000000000000000000000000000000000000000000081526004016121b89190612885565b60405180910390fd5b565b5f805f9054906101000a900473ffffffffffffffffffffffffffffffffffffffff169050815f806101000a81548173ffffffffffffffffffffffffffffffffffffffff021916908373ffffffffffffffffffffffffffffffffffffffff1602179055508173ffffffffffffffffffffffffffffffffffffffff168173ffffffffffffffffffffffffffffffffffffffff167f8be0079c531659141344cd1fd0a4f28419497f9722a3daafe3b4186f6b6457e060405160405180910390a35050565b61228c6123d1565b156122c3576040517f3ee5aeb500000000000000000000000000000000000000000000000000000000815260040160405180910390fd5b565b5f7f9b779b17422d0df92223018b32b4d1fa46e071723d6817e2486d003becc55f005f1b905090565b5f819050919050565b5f8063a9059cbb60e01b9050604051815f525f1960601c86166004528460245260205f60445f808b5af1925060015f5114831661234b57838315161561233f573d5f823e3d81fd5b5f873b113d1516831692505b806040525050949350505050565b5f806323b872dd60e01b9050604051815f525f1960601c87166004525f1960601c86166024528460445260205f60645f808c5af1925060015f511483166123b75783831516156123ab573d5f823e3d81fd5b5f883b113d1516831692505b806040525f606052505095945050505050565b5f33905090565b5f60026123e46123df6122c5565b6122ee565b5f015414905090565b6040518061016001604052805f73ffffffffffffffffffffffffffffffffffffffff1681526020015f73ffffffffffffffffffffffffffffffffffffffff1681526020015f81526020015f81526020015f73ffffffffffffffffffffffffffffffffffffffff1681526020015f81526020015f73ffffffffffffffffffffffffffffffffffffffff1681526020015f81526020015f81526020015f81526020015f151581525090565b6040518060c001604052805f151581526020015f151581526020015f81526020015f81526020015f151581526020015f81525090565b5f80fd5b5f80fd5b5f819050919050565b6124e6816124d4565b81146124f0575f80fd5b50565b5f81359050612501816124dd565b92915050565b5f73ffffffffffffffffffffffffffffffffffffffff82169050919050565b5f61253082612507565b9050919050565b61254081612526565b811461254a575f80fd5b50565b5f8135905061255b81612537565b92915050565b5f8060408385031215612577576125766124cc565b5b5f612584858286016124f3565b92505060206125958582860161254d565b9150509250929050565b5f8115159050919050565b6125b38161259f565b82525050565b5f6020820190506125cc5f8301846125aa565b92915050565b5f602082840312156125e7576125e66124cc565b5b5f6125f4848285016124f3565b91505092915050565b61260681612526565b82525050565b5f819050919050565b61261e8161260c565b82525050565b5f610160820190506126385f83018e6125fd565b612645602083018d6125fd565b612652604083018c612615565b61265f606083018b612615565b61266c608083018a6125fd565b61267960a0830189612615565b61268660c08301886125fd565b61269360e0830187612615565b6126a1610100830186612615565b6126af610120830185612615565b6126bd6101408301846125aa565b9c9b505050505050505050505050565b6126d681612526565b82525050565b6126e58161260c565b82525050565b6126f48161259f565b82525050565b61016082015f82015161270f5f8501826126cd565b50602082015161272260208501826126cd565b50604082015161273560408501826126dc565b50606082015161274860608501826126dc565b50608082015161275b60808501826126cd565b5060a082015161276e60a08501826126dc565b5060c082015161278160c08501826126cd565b5060e082015161279460e08501826126dc565b506101008201516127a96101008501826126dc565b506101208201516127be6101208501826126dc565b506101408201516127d36101408501826126eb565b50505050565b5f610160820190506127ed5f8301846126fa565b92915050565b60c082015f8201516128075f8501826126eb565b50602082015161281a60208501826126eb565b50604082015161282d60408501826126dc565b50606082015161284060608501826126dc565b50608082015161285360808501826126eb565b5060a082015161286660a08501826126dc565b50505050565b5f60c08201905061287f5f8301846127f3565b92915050565b5f6020820190506128985f8301846125fd565b92915050565b5f80fd5b5f80fd5b5f80fd5b5f8083601f8401126128bf576128be61289e565b5b8235905067ffffffffffffffff8111156128dc576128db6128a2565b5b6020830191508360208202830111156128f8576128f76128a6565b5b9250929050565b5f8083601f8401126129145761291361289e565b5b8235905067ffffffffffffffff811115612931576129306128a2565b5b60208301915083602082028301111561294d5761294c6128a6565b5b9250929050565b5f805f805f6060868803121561296d5761296c6124cc565b5b5f61297a888289016124f3565b955050602086013567ffffffffffffffff81111561299b5761299a6124d0565b5b6129a7888289016128aa565b9450945050604086013567ffffffffffffffff8111156129ca576129c96124d0565b5b6129d6888289016128ff565b92509250509295509295909350565b5f60c0820190506129f85f8301896125aa565b612a0560208301886125aa565b612a126040830187612615565b612a1f6060830186612615565b612a2c60808301856125aa565b612a3960a0830184612615565b979650505050505050565b612a4d8161260c565b8114612a57575f80fd5b50565b5f81359050612a6881612a44565b92915050565b5f805f805f805f60e0888a031215612a8957612a886124cc565b5b5f612a968a828b016124f3565b9750506020612aa78a828b0161254d565b9650506040612ab88a828b01612a5a565b9550506060612ac98a828b0161254d565b9450506080612ada8a828b01612a5a565b93505060a0612aeb8a828b0161254d565b92505060c0612afc8a828b01612a5a565b91505092959891949750929550565b5f805f60608486031215612b2257612b216124cc565b5b5f612b2f868287016124f3565b9350506020612b408682870161254d565b9250506040612b5186828701612a5a565b9150509250925092565b5f602082019050612b6e5f830184612615565b92915050565b5f60208284031215612b8957612b886124cc565b5b5f612b968482850161254d565b91505092915050565b5f82825260208201905092915050565b7f5175697a207374696c6c206163746976650000000000000000000000000000005f82015250565b5f612be3601183612b9f565b9150612bee82612baf565b602082019050919050565b5f6020820190508181035f830152612c1081612bd7565b9050919050565b7f4e6f207374616b6520746f2072657475726e00000000000000000000000000005f82015250565b5f612c4b601283612b9f565b9150612c5682612c17565b602082019050919050565b5f6020820190508181035f830152612c7881612c3f565b9050919050565b7f5374616b6520616c72656164792072657475726e6564000000000000000000005f82015250565b5f612cb3601683612b9f565b9150612cbe82612c7f565b602082019050919050565b5f6020820190508181035f830152612ce081612ca7565b9050919050565b7f4e487b71000000000000000000000000000000000000000000000000000000005f52601160045260245ffd5b5f612d1e8261260c565b9150612d298361260c565b9250828203905081811115612d4157612d40612ce7565b5b92915050565b7f4e6f7420617574686f72697a65640000000000000000000000000000000000005f82015250565b5f612d7b600e83612b9f565b9150612d8682612d47565b602082019050919050565b5f6020820190508181035f830152612da881612d6f565b9050919050565b7f416c726561647920636c6f7365640000000000000000000000000000000000005f82015250565b5f612de3600e83612b9f565b9150612dee82612daf565b602082019050919050565b5f6020820190508181035f830152612e1081612dd7565b9050919050565b7f5175697a206e6f742061637469766500000000000000000000000000000000005f82015250565b5f612e4b600f83612b9f565b9150612e5682612e17565b602082019050919050565b5f6020820190508181035f830152612e7881612e3f565b9050919050565b7f416c7265616479206a6f696e65640000000000000000000000000000000000005f82015250565b5f612eb3600e83612b9f565b9150612ebe82612e7f565b602082019050919050565b5f6020820190508181035f830152612ee081612ea7565b9050919050565b5f612ef18261260c565b9150612efc8361260c565b9250828201905080821115612f1457612f13612ce7565b5b92915050565b5f604082019050612f2d5f830185612615565b612f3a6020830184612615565b9392505050565b7f4c656e677468206d69736d6174636800000000000000000000000000000000005f82015250565b5f612f75600f83612b9f565b9150612f8082612f41565b602082019050919050565b5f6020820190508181035f830152612fa281612f69565b9050919050565b7f4e487b71000000000000000000000000000000000000000000000000000000005f52603260045260245ffd5b5f612fe08261260c565b91507fffffffffffffffffffffffffffffffffffffffffffffffffffffffffffffffff820361301257613011612ce7565b5b600182019050919050565b7f496e73756666696369656e742072657761726420706f6f6c00000000000000005f82015250565b5f613051601883612b9f565b915061305c8261301d565b602082019050919050565b5f6020820190508181035f83015261307e81613045565b9050919050565b7f4e6f742061207061727469636970616e740000000000000000000000000000005f82015250565b5f6130b9601183612b9f565b91506130c482613085565b602082019050919050565b5f6020820190508181035f8301526130e6816130ad565b9050919050565b7f4e6f742063726561746f720000000000000000000000000000000000000000005f82015250565b5f613121600b83612b9f565b915061312c826130ed565b602082019050919050565b5f6020820190508181035f83015261314e81613115565b9050919050565b7f4e6f20656e7472792066656573000000000000000000000000000000000000005f82015250565b5f613189600d83612b9f565b915061319482613155565b602082019050919050565b5f6020820190508181035f8301526131b68161317d565b9050919050565b7f5175697a20616c726561647920657869737473000000000000000000000000005f82015250565b5f6131f1601383612b9f565b91506131fc826131bd565b602082019050919050565b5f6020820190508181035f83015261321e816131e5565b9050919050565b7f496e76616c69642072657761726420746f6b656e0000000000000000000000005f82015250565b5f613259601483612b9f565b915061326482613225565b602082019050919050565b5f6020820190508181035f8301526132868161324d565b9050919050565b7f52657761726420616d6f756e74206d757374206265203e2030000000000000005f82015250565b5f6132c1601983612b9f565b91506132cc8261328d565b602082019050919050565b5f6020820190508181035f8301526132ee816132b5565b9050919050565b5f6040820190506133085f8301856125fd565b6133156020830184612615565b9392505050565b7f4e6f2072656d61696e696e6720726577617264730000000000000000000000005f82015250565b5f613350601483612b9f565b915061335b8261331c565b602082019050919050565b5f6020820190508181035f83015261337d81613344565b9050919050565b7f4e6f2072657761726420746f20636c61696d00000000000000000000000000005f82015250565b5f6133b8601283612b9f565b91506133c382613384565b602082019050919050565b5f6020820190508181035f8301526133e5816133ac565b9050919050565b7f416c726561647920636c61696d656400000000000000000000000000000000005f82015250565b5f613420600f83612b9f565b915061342b826133ec565b602082019050919050565b5f6020820190508181035f83015261344d81613414565b905091905056fea26469706673582212206b6e4589c2eeecf5e0669792406cc8d6a5017b27bc485aaa264a1f95a6b48a6c64736f6c63430008140033","linkReferences":{}},"methodIdentifiers":{"claimReward(bytes32)":"f5414023","closeQuiz(bytes32)":"5f49bde3","createQuiz(bytes32,address,uint256,address,uint256,address,uint256)":"b69059da","getClaimableReward(bytes32,address)":"d16a7c54","getParticipant(bytes32,address)":"6785ce09","getQuiz(bytes32)":"54362b9e","hasJoined(bytes32,address)":"02cc90c7","joinQuiz(bytes32)":"694d3d38","owner()":"8da5cb5b","participants(bytes32,address)":"a79a2c78","quizzes(bytes32)":"4a91466e","renounceOwnership()":"715018a6","returnStake(bytes32)":"3ba170c0","setWinner(bytes32,address,uint256)":"bd99e5bd","setWinnersBatch(bytes32,address[],uint256[])":"a3d4db7d","transferOwnership(address)":"f2fde38b","withdrawEntryFees(bytes32)":"a510acb1","withdrawRemainingRewards(bytes32)":"d616b212"},"id":26}