{"abi":[{"type":"constructor","inputs":[{"name":"_name","type":"string","internalType":"string"},{"name":"_symbol","type":"string","internalType":"string"},{"name":"_decimals","type":"uint8","internalType":"uint8"}],"stateMutability":"nonpayable"},{"type":"function","name":"allowance","inputs":[{"name":"","type":"address","internalType":"address"},{"name":"","type":"address","internalType":"address"}],"outputs":[{"name":"","type":"uint256","internalType":"uint256"}],"stateMutability":"view"},{"type":"function","name":"approve","inputs":[{"name":"spender","type":"address","internalType":"address"},{"name":"amount","type":"uint256","internalType":"uint256"}],"outputs":[{"name":"","type":"bool","internalType":"bool"}],"stateMutability":"nonpayable"},{"type":"function","name":"balanceOf","inputs":[{"name":"","type":"address","internalType":"address"}],"outputs":[{"name":"","type":"uint256","internalType":"uint256"}],"stateMutability":"view"},{"type":"function","name":"decimals","inputs":[],"outputs":[{"name":"","type":"uint8","internalType":"uint8"}],"stateMutability":"view"},{"type":"function","name":"mint","inputs":[{"name":"to","type":"address","internalType":"address"},{"name":"amount","type":"uint256","internalType":"uint256"}],"outputs":[],"stateMutability":"nonpayable"},{"type":"function","name":"name","inputs":[],"outputs":[{"name":"","type":"string","internalType":"string"}],"stateMutability":"view"},{"type":"function","name":"owner","inputs":[],"outputs":[{"name":"","type":"address","internalType":"address"}],"stateMutability":"view"},{"type":"function","name":"symbol","inputs":[],"outputs":[{"name":"","type":"string","internalType":"string"}],"stateMutability":"view"},{"type":"function","name":"totalSupply","inputs":[],"outputs":[{"name":"","type":"uint256","internalType":"uint256"}],"stateMutability":"view"},{"type":"function","name":"transfer","inputs":[{"name":"to","type":"address","internalType":"address"},{"name":"amount","type":"uint256","internalType":"uint256"}],"outputs":[{"name":"","type":"bool","internalType":"bool"}],"stateMutability":"nonpayable"},{"type":"function","name":"transferFrom","inputs":[{"name":"from","type":"address","internalType":"address"},{"name":"to","type":"address","internalType":"address"},{"name":"amount","type":"uint256","internalType":"uint256"}],"outputs":[{"name":"","type":"bool","internalType":"bool"}],"stateMutability":"nonpayable"},{"type":"function","name":"transferOwnership","inputs":[{"name":"newOwner","type":"address","internalType":"address"}],"outputs":[],"stateMutability":"nonpayable"},{"type":"event","name":"Approval","inputs":[{"name":"owner","type":"address","indexed":true,"internalType":"address"},{"name":"spender","type":"address","indexed":true,"internalType":"address"},{"name":"value","type":"uint256","indexed":false,"internalType":"uint256"}],"anonymous":false},{"type":"event","name":"Transfer","inputs":[{"name":"from","type":"address","indexed":true,"internalType":"address"},{"name":"to","type":"address","indexed":true,"internalType":"address"},{"name":"value","type":"uint256","indexed":false,"internalType":"uint256"}],"anonymous":false}],"bytecode":{"object":"0x608060405234801562000010575f80fd5b50604051620017183803806200171883398181016040528101906200003691906200027c565b825f90816200004691906200054a565b5081600190816200005891906200054a565b508060025f6101000a81548160ff021916908360ff1602179055503360065f6101000a81548173ffffffffffffffffffffffffffffffffffffffff021916908373ffffffffffffffffffffffffffffffffffffffff1602179055505050506200062e565b5f604051905090565b5f80fd5b5f80fd5b5f80fd5b5f80fd5b5f601f19601f8301169050919050565b7f4e487b71000000000000000000000000000000000000000000000000000000005f52604160045260245ffd5b6200011d82620000d5565b810181811067ffffffffffffffff821117156200013f576200013e620000e5565b5b80604052505050565b5f62000153620000bc565b905062000161828262000112565b919050565b5f67ffffffffffffffff821115620001835762000182620000e5565b5b6200018e82620000d5565b9050602081019050919050565b5f5b83811015620001ba5780820151818401526020810190506200019d565b5f8484015250505050565b5f620001db620001d58462000166565b62000148565b905082815260208101848484011115620001fa57620001f9620000d1565b5b620002078482856200019b565b509392505050565b5f82601f830112620002265762000225620000cd565b5b815162000238848260208601620001c5565b91505092915050565b5f60ff82169050919050565b620002588162000241565b811462000263575f80fd5b50565b5f8151905062000276816200024d565b92915050565b5f805f60608486031215620002965762000295620000c5565b5b5f84015167ffffffffffffffff811115620002b657620002b5620000c9565b5b620002c4868287016200020f565b935050602084015167ffffffffffffffff811115620002e857620002e7620000c9565b5b620002f6868287016200020f565b9250506040620003098682870162000266565b9150509250925092565b5f81519050919050565b7f4e487b71000000000000000000000000000000000000000000000000000000005f52602260045260245ffd5b5f60028204905060018216806200036257607f821691505b6020821081036200037857620003776200031d565b5b50919050565b5f819050815f5260205f209050919050565b5f6020601f8301049050919050565b5f82821b905092915050565b5f60088302620003dc7fffffffffffffffffffffffffffffffffffffffffffffffffffffffffffffffff826200039f565b620003e886836200039f565b95508019841693508086168417925050509392505050565b5f819050919050565b5f819050919050565b5f620004326200042c620004268462000400565b62000409565b62000400565b9050919050565b5f819050919050565b6200044d8362000412565b620004656200045c8262000439565b848454620003ab565b825550505050565b5f90565b6200047b6200046d565b6200048881848462000442565b505050565b5b81811015620004af57620004a35f8262000471565b6001810190506200048e565b5050565b601f821115620004fe57620004c8816200037e565b620004d38462000390565b81016020851015620004e3578190505b620004fb620004f28562000390565b8301826200048d565b50505b505050565b5f82821c905092915050565b5f620005205f198460080262000503565b1980831691505092915050565b5f6200053a83836200050f565b9150826002028217905092915050565b620005558262000313565b67ffffffffffffffff811115620005715762000570620000e5565b5b6200057d82546200034a565b6200058a828285620004b3565b5f60209050601f831160018114620005c0575f8415620005ab578287015190505b620005b785826200052d565b86555062000626565b601f198416620005d0866200037e565b5f5b82811015620005f957848901518255600182019150602085019450602081019050620005d2565b8683101562000619578489015162000615601f8916826200050f565b8355505b6001600288020188555050505b505050505050565b6110dc806200063c5f395ff3fe608060405234801561000f575f80fd5b50600436106100b2575f3560e01c806370a082311161006f57806370a082311461018c5780638da5cb5b146101bc57806395d89b41146101da578063a9059cbb146101f8578063dd62ed3e14610228578063f2fde38b14610258576100b2565b806306fdde03146100b6578063095ea7b3146100d457806318160ddd1461010457806323b872dd14610122578063313ce5671461015257806340c10f1914610170575b5f80fd5b6100be610274565b6040516100cb9190610c1f565b60405180910390f35b6100ee60048036038101906100e99190610cd0565b6102ff565b6040516100fb9190610d28565b60405180910390f35b61010c6103ec565b6040516101199190610d50565b60405180910390f35b61013c60048036038101906101379190610d69565b6103f2565b6040516101499190610d28565b60405180910390f35b61015a6106d2565b6040516101679190610dd4565b60405180910390f35b61018a60048036038101906101859190610cd0565b6106e4565b005b6101a660048036038101906101a19190610ded565b610847565b6040516101b39190610d50565b60405180910390f35b6101c461085c565b6040516101d19190610e27565b60405180910390f35b6101e2610881565b6040516101ef9190610c1f565b60405180910390f35b610212600480360381019061020d9190610cd0565b61090d565b60405161021f9190610d28565b60405180910390f35b610242600480360381019061023d9190610e40565b610aa3565b60405161024f9190610d50565b60405180910390f35b610272600480360381019061026d9190610ded565b610ac3565b005b5f805461028090610eab565b80601f01602080910402602001604051908101604052809291908181526020018280546102ac90610eab565b80156102f75780601f106102ce576101008083540402835291602001916102f7565b820191905f5260205f20905b8154815290600101906020018083116102da57829003601f168201915b505050505081565b5f8160055f3373ffffffffffffffffffffffffffffffffffffffff1673ffffffffffffffffffffffffffffffffffffffff1681526020019081526020015f205f8573ffffffffffffffffffffffffffffffffffffffff1673ffffffffffffffffffffffffffffffffffffffff1681526020019081526020015f20819055508273ffffffffffffffffffffffffffffffffffffffff163373ffffffffffffffffffffffffffffffffffffffff167f8c5be1e5ebec7d5bd14f71427d1e84f3dd0314c0f7b2291e5b200ac8c7c3b925846040516103da9190610d50565b60405180910390a36001905092915050565b60035481565b5f8160045f8673ffffffffffffffffffffffffffffffffffffffff1673ffffffffffffffffffffffffffffffffffffffff1681526020019081526020015f20541015610473576040517f08c379a000000000000000000000000000000000000000000000000000000000815260040161046a90610f25565b60405180910390fd5b8160055f8673ffffffffffffffffffffffffffffffffffffffff1673ffffffffffffffffffffffffffffffffffffffff1681526020019081526020015f205f3373ffffffffffffffffffffffffffffffffffffffff1673ffffffffffffffffffffffffffffffffffffffff1681526020019081526020015f2054101561052e576040517f08c379a000000000000000000000000000000000000000000000000000000000815260040161052590610f8d565b60405180910390fd5b8160055f8673ffffffffffffffffffffffffffffffffffffffff1673ffffffffffffffffffffffffffffffffffffffff1681526020019081526020015f205f3373ffffffffffffffffffffffffffffffffffffffff1673ffffffffffffffffffffffffffffffffffffffff1681526020019081526020015f205f8282546105b59190610fd8565b925050819055508160045f8673ffffffffffffffffffffffffffffffffffffffff1673ffffffffffffffffffffffffffffffffffffffff1681526020019081526020015f205f8282546106089190610fd8565b925050819055508160045f8573ffffffffffffffffffffffffffffffffffffffff1673ffffffffffffffffffffffffffffffffffffffff1681526020019081526020015f205f82825461065b919061100b565b925050819055508273ffffffffffffffffffffffffffffffffffffffff168473ffffffffffffffffffffffffffffffffffffffff167fddf252ad1be2c89b69c2b068fc378daa952ba7f163c4a11628f55a4df523b3ef846040516106bf9190610d50565b60405180910390a3600190509392505050565b60025f9054906101000a900460ff1681565b60065f9054906101000a900473ffffffffffffffffffffffffffffffffffffffff1673ffffffffffffffffffffffffffffffffffffffff163373ffffffffffffffffffffffffffffffffffffffff1614610773576040517f08c379a000000000000000000000000000000000000000000000000000000000815260040161076a90611088565b60405180910390fd5b8060035f828254610784919061100b565b925050819055508060045f8473ffffffffffffffffffffffffffffffffffffffff1673ffffffffffffffffffffffffffffffffffffffff1681526020019081526020015f205f8282546107d7919061100b565b925050819055508173ffffffffffffffffffffffffffffffffffffffff165f73ffffffffffffffffffffffffffffffffffffffff167fddf252ad1be2c89b69c2b068fc378daa952ba7f163c4a11628f55a4df523b3ef8360405161083b9190610d50565b60405180910390a35050565b6004602052805f5260405f205f915090505481565b60065f9054906101000a900473ffffffffffffffffffffffffffffffffffffffff1681565b6001805461088e90610eab565b80601f01602080910402602001604051908101604052809291908181526020018280546108ba90610eab565b80156109055780601f106108dc57610100808354040283529160200191610905565b820191905f5260205f20905b8154815290600101906020018083116108e857829003601f168201915b505050505081565b5f8160045f3373ffffffffffffffffffffffffffffffffffffffff1673ffffffffffffffffffffffffffffffffffffffff1681526020019081526020015f2054101561098e576040517f08c379a000000000000000000000000000000000000000000000000000000000815260040161098590610f25565b60405180910390fd5b8160045f3373ffffffffffffffffffffffffffffffffffffffff1673ffffffffffffffffffffffffffffffffffffffff1681526020019081526020015f205f8282546109da9190610fd8565b925050819055508160045f8573ffffffffffffffffffffffffffffffffffffffff1673ffffffffffffffffffffffffffffffffffffffff1681526020019081526020015f205f828254610a2d919061100b565b925050819055508273ffffffffffffffffffffffffffffffffffffffff163373ffffffffffffffffffffffffffffffffffffffff167fddf252ad1be2c89b69c2b068fc378daa952ba7f163c4a11628f55a4df523b3ef84604051610a919190610d50565b60405180910390a36001905092915050565b6005602052815f5260405f20602052805f5260405f205f91509150505481565b60065f9054906101000a900473ffffffffffffffffffffffffffffffffffffffff1673ffffffffffffffffffffffffffffffffffffffff163373ffffffffffffffffffffffffffffffffffffffff1614610b52576040517f08c379a0000000000000000000000000000000000000000000000000000000008152600401610b4990611088565b60405180910390fd5b8060065f6101000a81548173ffffffffffffffffffffffffffffffffffffffff021916908373ffffffffffffffffffffffffffffffffffffffff16021790555050565b5f81519050919050565b5f82825260208201905092915050565b5f5b83811015610bcc578082015181840152602081019050610bb1565b5f8484015250505050565b5f601f19601f8301169050919050565b5f610bf182610b95565b610bfb8185610b9f565b9350610c0b818560208601610baf565b610c1481610bd7565b840191505092915050565b5f6020820190508181035f830152610c378184610be7565b905092915050565b5f80fd5b5f73ffffffffffffffffffffffffffffffffffffffff82169050919050565b5f610c6c82610c43565b9050919050565b610c7c81610c62565b8114610c86575f80fd5b50565b5f81359050610c9781610c73565b92915050565b5f819050919050565b610caf81610c9d565b8114610cb9575f80fd5b50565b5f81359050610cca81610ca6565b92915050565b5f8060408385031215610ce657610ce5610c3f565b5b5f610cf385828601610c89565b9250506020610d0485828601610cbc565b9150509250929050565b5f8115159050919050565b610d2281610d0e565b82525050565b5f602082019050610d3b5f830184610d19565b92915050565b610d4a81610c9d565b82525050565b5f602082019050610d635f830184610d41565b92915050565b5f805f60608486031215610d8057610d7f610c3f565b5b5f610d8d86828701610c89565b9350506020610d9e86828701610c89565b9250506040610daf86828701610cbc565b9150509250925092565b5f60ff82169050919050565b610dce81610db9565b82525050565b5f602082019050610de75f830184610dc5565b92915050565b5f60208284031215610e0257610e01610c3f565b5b5f610e0f84828501610c89565b91505092915050565b610e2181610c62565b82525050565b5f602082019050610e3a5f830184610e18565b92915050565b5f8060408385031215610e5657610e55610c3f565b5b5f610e6385828601610c89565b9250506020610e7485828601610c89565b9150509250929050565b7f4e487b71000000000000000000000000000000000000000000000000000000005f52602260045260245ffd5b5f6002820490506001821680610ec257607f821691505b602082108103610ed557610ed4610e7e565b5b50919050565b7f496e73756666696369656e742062616c616e63650000000000000000000000005f82015250565b5f610f0f601483610b9f565b9150610f1a82610edb565b602082019050919050565b5f6020820190508181035f830152610f3c81610f03565b9050919050565b7f496e73756666696369656e7420616c6c6f77616e6365000000000000000000005f82015250565b5f610f77601683610b9f565b9150610f8282610f43565b602082019050919050565b5f6020820190508181035f830152610fa481610f6b565b9050919050565b7f4e487b71000000000000000000000000000000000000000000000000000000005f52601160045260245ffd5b5f610fe282610c9d565b9150610fed83610c9d565b925082820390508181111561100557611004610fab565b5b92915050565b5f61101582610c9d565b915061102083610c9d565b925082820190508082111561103857611037610fab565b5b92915050565b7f4f6e6c79206f776e6572000000000000000000000000000000000000000000005f82015250565b5f611072600a83610b9f565b915061107d8261103e565b602082019050919050565b5f6020820190508181035f83015261109f81611066565b905091905056fea264697066735822122096c635219680085c8e9e0d261783fcbf6325e0226a0994a8c9ea8bff75bbfa6964736f6c63430008140033","linkReferences":{}},"methodIdentifiers":{"allowance(address,address)":"dd62ed3e","approve(address,uint256)":"095ea7b3","balanceOf(address)":"70a08231","decimals()":"313ce567","mint(address,uint256)":"40c10f19","name()":"06fdde03","owner()":"8da5cb5b","symbol()":"95d89b41","totalSupply()":"18160ddd","transfer(address,uint256)":"a9059cbb","transferFrom(address,address,uint256)":"23b872dd","transferOwnership(address)":"f2fde38b"},"id":16}